:100000000C9468010C9485010C9485010C94850175
:100010000C9485010C9485010C9485010C94850148
:100020000C9485010C9485010C9485010C94850138
:100030000C9485010C9485010C9485010C94850128
:100040000C9485010C9485010C9485010C94850118
:100050000C9485010C9485010C9485010C94850108
:100060000C9485010C94850163616C6C6261636B17
:100070002066726F6D206D61696E6D656E75210D04
:100080000A0063616C6C6261636B2066726F6D2045
:100090007375626D656E75210D0A003E20426163C5
:1000A0006B210D0A003E2053656C656374210D0AB7
:1000B000003E20446F776E210D0A003E20557021CE
:1000C0000D0A00000000000000005F0000000700B3
:1000D0000700147F147F14242A7F2A122313086434
:1000E0006236495522500005030000001C224100E1
:1000F0000041221C0014083E081408083E080800AD
:100100005030000008080808080060600000201057
:100110000804023E5149453E00427F400042615181
:1001200049462141454B311814127F10274545455A
:10013000393C4A4949300301710907364949493672
:1001400006494929160036360000005636000008D8
:100150001422410014141414140041221408020142
:10016000510906324979413E7E1111117E7F49497C
:1001700049363E414141227F4141221C7F49494944
:10018000417F090901013E4149493A7F0808087F3A
:1001900000417F41002041413F017F081422417FFF
:1001A000404040407F020C027F7F0408107F3E41A8
:1001B00041413E7F090909063E4151215E7F0919EF
:1001C0002946264949493201017F01013F4040400B
:1001D0003F1F2040201F3F4038403F6314081463F6
:1001E00007087008076151494543007F41410002FB
:1001F000040810200041417F000402010204404035
:10020000404040000102040020545454787F484488
:1002100044383844444420384444483F38545454C3
:1002200018087E0901020C5252523E7F08040478DD
:1002300000447D40002040453C007F1028440000E1
:10024000417F40007C041804787C0804047838441A
:100250004444387C14141408081414187C7C0804D2
:1002600004084854545420043F4440203C4040205B
:100270007C1C2040201C3C4030403C44281028443A
:100280000C5050503C4464544C440008364100002B
:10029000007F000000413608001008081008081C04
:1002A0002A08080E150E00121F1000121916001150
:1002B000150B0007041F00171509000E150900197A
:1002C0000503001A150B0012150E000010000000A7
:1002D00011241FBECFEFD8E0DEBFCDBF11E0A0E0FC
:1002E000B1E0E0EAF9E002C005900D92A63DB10749
:1002F000D9F711E0A6EDB1E001C01D92A13EB10712
:10030000E1F70E94CF020C94CE040C940000FF93FE
:10031000EF93E091D601F091D701309709F009955C
:10032000EF91FF910895FC018591803011F0EFDF8E
:10033000FBCF0895FF27E0E230E247FF0CC0419574
:1003400097FF09C0EDE26095709580959095611DCD
:10035000711D811D911D27FF02C0219530E350E2E0
:10036000AA27660F771F881F991FAA1FA41710F0CE
:10037000A41B63955A95A9F7AA3008F0A95FA05D60
:10038000AF93F395611571058105910541F7ED3244
:1003900011F4EF93F395F21718F43F93F395FBCF15
:1003A0008F91B5DFFA95E1F70895DF93CF93CDB73D
:1003B000DEB72596E991F9918591803021F085325B
:1003C00029F0A5DFF9CFCF91DF91089520E0E894DF
:1003D00055915532B1F3503311F4689455915A3315
:1003E00048F4505380F3220F022E220F220F200DCB
:1003F000250FF4CF0EF4219589919991533609F385
:10040000533729F1533559F1BC0188279927E894CE
:100410005C3621F48991999168945591543639F458
:1004200046EF7EF077FF0DC08FEF9FEF0AC0553784
:100430004AE039F0583540E121F0523642E009F007
:10044000C2CFFF93EF9376DFEF91FF91B5CFFF938C
:10045000EF93FC0181918030B9F359DFFBCFFF931B
:10046000EF9361DFF1CF9091C00095FFFCCF8093B7
:10047000C6008091C00086FFFCCF089500D082E8BE
:1004800090E0EDB7FEB7928381830E94D5010F9073
:100490000F90089500D088E690E0EDB7FEB7928304
:1004A00081830E94D5010F900F9008955098519A22
:1004B0001092C50083E38093C40088E98093C10053
:1004C00086E08093C20083E392E09093D70180930B
:1004D000D60108953898409A3998419A3A98429AA4
:1004E0003B98439A089581E0319980E0089581E036
:1004F000339980E0089581E0329980E0089581E0A9
:10050000309980E00895CF93DF93EC010E947B0245
:10051000882359F00E947B028823E1F7CE010E94D4
:10052000F00300D08BE990E02CC00E947F0288236A
:1005300059F00E947F028823E1F7CE010E94000457
:1005400000D085EA90E01DC00E947702882359F010
:100550000E9477028823E1F7CE010E94270400D091
:1005600081EB90E00EC00E9473028823A1F00E94EC
:1005700073028823E1F7CE010E94440400D08BEB84
:1005800090E0EDB7FEB7928381830E94D5010F9072
:100590000F9081E001C080E0DF91CF9108950E942B
:1005A00056020E946A0289E20E9478031092D901E1
:1005B00086E08093DA011092DB011092DC01109248
:1005C000DD0184E691E09093DF018093DE0189ED07
:1005D00091E00E94520489ED91E00E9483028823F9
:1005E000D1F3F5CF0E94D80380E060E00E9452036F
:1005F0000895CF93DF93EC0180E091E00E94E40343
:10060000CE010E94E403DF91CF910895CF93DF9351
:10061000EC0182E091E00E94E403CE010E94E40339
:10062000DF91CF91089584E091E00E94E403089562
:100630008091E0018F5F8093E001843558F0109243
:10064000E0018091D8018F5F8093D801863010F04F
:100650001092D8010895882311F0299A01C0299891
:100660002B9827E030E070E0AB01022E02C05595D8
:1006700047950A94E2F740FF02C02A9A01C02A98DF
:100680002B9A2B98215030409FEF2F3F390761F76D
:10069000882311F00E9418030895682F80E00E94BB
:1006A0002B030895A1E0B0E0E8E5F3E00C94A60484
:1006B000982F162F863018F066E00E948B041435B0
:1006C00020F0892F64E50E948B04812F8068998334
:1006D0000E944D039981892F80640E944D03998166
:1006E0009093D8011093E0012196E3E00C94C204AA
:1006F000CF93C82F209A219A229A239A28988FE97B
:100700009FE00197F1F700C00000289A81E20E9463
:100710004D038C2F80680E944D0384E00E944D039E
:1007200083E10E944D0380E20E944D038CE00E9411
:100730004D03CF910895682F81E00E942B03089507
:100740000F931F93CF93DF93C82F8D3021F48091A7
:10075000D80160E007C08A3039F48091D8018F5FFA
:100760006091E0010E9452038C2F80528036D8F4B1
:100770008C2F90E08C01000F111F000F111F080F2C
:10078000191FC0E0D0E00D5D1F4FF801EC0FFD1FF9
:100790008491880F0E949B032196C530D105A9F74B
:1007A00080E00E949B03DF91CF911F910F910895EC
:1007B000CF93DF93C8EFD1E080E00E949B032197A5
:1007C000D9F7DF91CF910895CF93DF93EC0102C069
:1007D0000E94A00389918823D9F7DF91CF910895D2
:1007E000FC01A581B68111968D919C91129700977D
:1007F00031F0968385838281808384818383089509
:10080000FC012381A581B681822F90E0880F991F7A
:1008100013960D90BC91A02DA80FB91F0D90BC91FF
:10082000A02D14968D919C911597009741F0968379
:100830008583808182832483108213820895129697
:10084000ED91FC911397309709F009950895FC01FB
:100850006081A581B6812C916217A9F08381482F10
:1008600050E030E0215030404217530761F08F5F75
:10087000838390E0861B9109218130E082179307E2
:1008800011F46F5F60830895FC0180819381992347
:1008900011F4882331F091509383981710F481500C
:1008A000808308950F931F93CF938C010E94F202CF
:1008B000D801CC9121C0D8011596ED91FC911697E5
:1008C0002081C217B0F413964C919C01220F331F64
:1008D00083819481820F931FDC01ED91FC9111972C
:1008E000808191814C1719F40E94060302C00E9476
:1008F000F9020E941303CF5F8C2F90E0F801408132
:10090000218130E0240F311D82179307A4F2CF918B
:100910001F910F910895991B79E004C0991F9617B4
:1009200008F0961B881F7A95C9F7809508952F9235
:100930003F924F925F926F927F928F929F92AF926F
:10094000BF92CF92DF92EF92FF920F931F93CF93BC
:10095000DF93CDB7DEB7CA1BDB0B0FB6F894DEBF53
:100960000FBECDBF09942A88398848885F846E8479
:100970007D848C849B84AA84B984C884DF80EE80C3
:10098000FD800C811B81AA81B981CE0FD11D0FB6CC
:10099000F894DEBF0FBECDBFED010895F894FFCFF0
:1009A00020003E000D0A007375626D656E7535009E
:1009B0007375626D656E7534007375626D656E7505
:1009C00033007375626D656E7532007375626D65A7
:1009D0006E7531006D656E7538006D656E7537002A
:1009E0006D656E7536006D656E7535006D656E757D
:1009F00034006D656E7533006D656E7532006D6522
:100A00006E75310008000091018B0185017F01792D
:100A100001730107013E02000010013E02000019AF
:100A2000013E02000022013E0200002B013E0200B6
:100A300000CB01C501BF01B901B301AD01A701A1FF
:100A40000134010000D1013A010000D10140010050
:100A500000D10146010000D1014C010000D101523A
:100A6000010000D10158010000D1015E014A0200DD
:060A7000000564016901AC
:00000001FF
